{
  "contractName": "EventExample",
  "abi": [
    {
      "inputs": [],
      "stateMutability": "nonpayable",
      "type": "constructor"
    },
    {
      "anonymous": false,
      "inputs": [
        {
          "indexed": true,
          "internalType": "address",
          "name": "_from",
          "type": "address"
        },
        {
          "indexed": true,
          "internalType": "address",
          "name": "_to",
          "type": "address"
        },
        {
          "indexed": false,
          "internalType": "uint256",
          "name": "_amount",
          "type": "uint256"
        }
      ],
      "name": "TokensSent",
      "type": "event"
    },
    {
      "inputs": [
        {
          "internalType": "address",
          "name": "",
          "type": "address"
        }
      ],
      "name": "tokenBalance",
      "outputs": [
        {
          "internalType": "uint256",
          "name": "",
          "type": "uint256"
        }
      ],
      "stateMutability": "view",
      "type": "function",
      "constant": true
    },
    {
      "inputs": [
        {
          "internalType": "address",
          "name": "_to",
          "type": "address"
        },
        {
          "internalType": "uint256",
          "name": "_amount",
          "type": "uint256"
        }
      ],
      "name": "sendTokens",
      "outputs": [
        {
          "internalType": "bool",
          "name": "",
          "type": "bool"
        }
      ],
      "stateMutability": "nonpayable",
      "type": "function"
    }
  ],
  "bytecode": "0x608060405234801561001057600080fd5b5060646000803373ffffffffffffffffffffffffffffffffffffffff1673ffffffffffffffffffffffffffffffffffffffff16815260200190815260200160002081905550610521806100646000396000f3fe608060405234801561001057600080fd5b50600436106100365760003560e01c806305ab421d1461003b578063eedc966a1461006b575b600080fd5b610055600480360381019061005091906102e8565b61009b565b6040516100629190610343565b60405180910390f35b6100856004803603810190610080919061035e565b610237565b604051610092919061039a565b60405180910390f35b6000816000803373ffffffffffffffffffffffffffffffffffffffff1673ffffffffffffffffffffffffffffffffffffffff16815260200190815260200160002054101561011e576040517f08c379a000000000000000000000000000000000000000000000000000000000815260040161011590610412565b60405180910390fd5b816000803373ffffffffffffffffffffffffffffffffffffffff1673ffffffffffffffffffffffffffffffffffffffff168152602001908152602001600020600082825461016c9190610461565b92505081905550816000808573ffffffffffffffffffffffffffffffffffffffff1673ffffffffffffffffffffffffffffffffffffffff16815260200190815260200160002060008282546101c19190610495565b925050819055508273ffffffffffffffffffffffffffffffffffffffff163373ffffffffffffffffffffffffffffffffffffffff167fe607861baff3d292b19188affe88c1a72bdcb69d3015f18bb2cd0bf5349cc3e184604051610225919061039a565b60405180910390a36001905092915050565b60006020528060005260406000206000915090505481565b600080fd5b600073ffffffffffffffffffffffffffffffffffffffff82169050919050565b600061027f82610254565b9050919050565b61028f81610274565b811461029a57600080fd5b50565b6000813590506102ac81610286565b92915050565b6000819050919050565b6102c5816102b2565b81146102d057600080fd5b50565b6000813590506102e2816102bc565b92915050565b600080604083850312156102ff576102fe61024f565b5b600061030d8582860161029d565b925050602061031e858286016102d3565b9150509250929050565b60008115159050919050565b61033d81610328565b82525050565b60006020820190506103586000830184610334565b92915050565b6000602082840312156103745761037361024f565b5b60006103828482850161029d565b91505092915050565b610394816102b2565b82525050565b60006020820190506103af600083018461038b565b92915050565b600082825260208201905092915050565b7f4e6f20656e6f75676820746f6b656e7300000000000000000000000000000000600082015250565b60006103fc6010836103b5565b9150610407826103c6565b602082019050919050565b6000602082019050818103600083015261042b816103ef565b9050919050565b7f4e487b7100000000000000000000000000000000000000000000000000000000600052601160045260246000fd5b600061046c826102b2565b9150610477836102b2565b92508282101561048a57610489610432565b5b828203905092915050565b60006104a0826102b2565b91506104ab836102b2565b9250827fffffffffffffffffffffffffffffffffffffffffffffffffffffffffffffffff038211156104e0576104df610432565b5b82820190509291505056fea2646970667358221220c6766488ce4ae2ad4298fc5ed2e803d97cc4aed3a9d82de700b12eb5814f723a64736f6c634300080e0033",
  "immutableReferences": {},
  "source": "// SPDX-License-Identifier: MIT\r\n\r\npragma solidity 0.8.14; \r\n\r\ncontract EventExample {\r\n\r\n    mapping(address => uint ) public tokenBalance;\r\n\r\n    event TokensSent(address indexed _from , address  indexed _to , uint _amount ); \r\n\r\n\r\n    constructor() {\r\n        tokenBalance[msg.sender] = 100;\r\n    }\r\n    function sendTokens(address _to , uint _amount ) public  returns(bool){\r\n\r\n        require(tokenBalance[msg.sender] >= _amount, \"No enough tokens\");\r\n\r\n        tokenBalance[msg.sender] -= _amount;\r\n        tokenBalance[_to] += _amount;\r\n\r\n        emit TokensSent(msg.sender , _to ,_amount);\r\n    return true;\r\n\r\n\r\n    }\r\n}",
  "sourcePath": "D:\\Projects\\web3\\web3-wallet\\truffle\\contracts\\Wallet.sol",
  "compiler": {
    "name": "solc",
    "version": "0.8.14+commit.80d49f37.Emscripten.clang"
  },
  "schemaVersion": "3.4.16",
  "updatedAt": "2025-08-07T15:44:25.321Z",
  "networkType": "ethereum",
  "devdoc": {
    "kind": "dev",
    "methods": {},
    "version": 1
  },
  "userdoc": {
    "kind": "user",
    "methods": {},
    "version": 1
  }
}